:060000000A128A1110280B
:10000800FE00030E83120313A2000408A3000A08CB
:10001800A4000A128A11E92F0A128A1113288313DD
:10002800B730FD000C30FE009F30FF00AD3084007B
:100038000A128A15AD240A128A1183160313B7010E
:10004800B801B901BA01BB01BC01BD01BE018312EF
:100058000313DD01DE01DF0183010A128A11352E47
:100068008312031336088039BB003B08C0003608EA
:10007800BB003B07BC003C08C600B51F4428452808
:1000880046284614460803194A284B285A28460A7F
:10009800031D4F28502858280030B6000030B500FE
:1000A8000030B4000030B300B51762280030B60045
:1000B8000030B5000030B4000030B3003A08803991
:1000C800BB003B08C0063A08BB003B07BC003C0825
:1000D800C500B91F702871287228451445080319EE
:1000E800762877288628450A031D7B287C288428BB
:1000F8000030BA000030B9000030B8000030B70056
:10010800B9178E280030BA000030B9000030B800A6
:100118000030B70045080319922893289828460804
:10012800031D97289828A1280030B6000030B50094
:100138000030B4000030B300942B3308BB003B08F8
:10014800A50039080A128A15BC240A128A118312DA
:1001580003132608CC002508CB004B08BB00BC01C4
:10016800BD01BE013E08C4003D08C3003C08C200F2
:100178003B08C1004C08BB00BC01BD01BE013E08E4
:10018800CA003D08C9003C08C8003B08C70034083D
:10019800BB003B08A50038080A128A15BC240A12BD
:1001A8008A11831203132608CC002508CB004B08BC
:1001B800BB00BC01BD01BE013B08C1073C080311DF
:1001C8000318013E0319E928C2073D080311031863
:1001D800013E0319F028C3073E0803110318013E26
:1001E8000319F728C4074C08BB00BC01BD01BE01B8
:1001F8003B08C7073C0803110318013E03190529EA
:10020800C8073D0803110318013E03190C29C90743
:100218003E0803110318013E03191329CA073508BC
:10022800BB003B08A50037080A128A15BC240A122D
:100238008A11831203132608CC002508CB004B082B
:10024800BB00BC01BD01BE013B08C1073C0803114E
:100258000318013E03193129C2073D080311031889
:10026800013E03193829C3073E0803110318013E4C
:1002780003193F29C4074C08BB00BC01BD01BE01DE
:100288003B08C7073C0803110318013E03194D2911
:10029800C8073D0803110318013E03195429C9076B
:1002A8003E0803110318013E03195B29CA070830E9
:1002B800BB000310C10DC20DC30DC40DBB0B5D29DE
:1002C8003408BB003B08A50037080A128A15BC246D
:1002D8000A128A11831203132608CC002508CB00C2
:1002E8004B08BB004C08BC00BD01BE013B08C10760
:1002F8003C0803110318013E03198329C2073D086E
:1003080003110318013E03198A29C3073E08031184
:100318000318013E03199129C4073308BB003B08A1
:10032800A50038080A128A15BC240A128A118312F9
:1003380003132608CC002508CB004B08BB004C084B
:10034800BC00BD01BE013B08C1073C0803110318EE
:10035800013E0319B029C2073D0803110318013EE5
:100368000319B729C3073E0803110318013E0319EF
:10037800BE29C4070830BB000310C10DC20DC30D50
:10038800C40DBB0BC0293308BB003B08A5003708C8
:100398000A128A15BC240A128A118312031326082A
:1003A800CC002508CB004B08BB004C08BC00BD01A5
:1003B800BE013B08C1073C0803110318013E03199D
:1003C800E629C2073D0803110318013E0319ED2968
:1003D800C3073E0803110318013E0319F429C40793
:1003E8003408BB003B08A50039080A128A15BC244A
:1003F8000A128A11831203132608CC002508CB00A1
:100408004B08BB004C08BC00BD01BE013B08C70738
:100418003C0803110318013E0319132AC8073D08B5
:1004280003110318013E03191A2AC9073E080311CC
:100438000318013E0319212ACA073508BB003B08E7
:10044800A50038080A128A15BC240A128A118312D8
:1004580003132608CC002508CB004B08BB004C082A
:10046800BC00BD01BE013B08C7073C0803110318C7
:10047800013E0319402AC8073D0803110318013E2D
:100488000319472AC9073E0803110318013E031937
:100498004E2ACA073508BB003B08A50039080A12CE
:1004A8008A15BC240A128A11831203132608CC0069
:1004B8002508CB004B08BB004C08BC00BD01BE01A1
:1004C80008300310BB0DBC0DBD0DBE0DFF3E031D56
:1004D800652A3B08C7073C0803110318013E0319A6
:1004E800762AC8073D0803110318013E03197D2A1F
:1004F800C9073E0803110318013E0319842ACA07D5
:100508004108BB004208BC004308BD004408BE00C7
:1005180018300310BE0CBD0CBC0CBB0CFF3E031DF9
:100528008D2A3B08C7073C0803110318013E03192D
:100538009E2AC8073D0803110318013E0319A52A7E
:10054800C9073E0803110318013E0319AC2ACA075C
:100558000830BB000310C10DC20DC30DC40DBB0B89
:10056800AE2A46084507BB00BC01BC0D3B08823ECD
:10057800CB003C080318013EFF3ECC00E02A0130C6
:10058800BB000310C70DC80DC90DCA0DBB0BC52A8A
:10059800C41FCF2AD02AD12A47140130BB00031028
:1005A800C10DC20DC30DC40DBB0BD32AFF30CB0741
:1005B8000318CC0AFF30CC07C91FE32AE42AC32A50
:1005C800C501C41FE82AE92A052BFF304105BB00F5
:1005D800FF304205BC00FF304305BD007F304405B5
:1005E800BE003E083D043C043B040319FC2AFD2AD6
:1005F800002BC501C50A052B471C032B042B052B13
:10060800FD2A45080319092B0A2B3B2B0130C70784
:10061800003003180130C807003003180130C9073B
:10062800003003180130CA074A1C1B2B1C2B3B2B1C
:100638004708BB004808BC004908BD004A08BE007E
:100648000130BF003E0DBE0CBD0CBC0CBB0CBF0B7B
:10065800262B3E08CA003D08C9003C08C8003B08D4
:10066800C7000130CB070318CC0A0030CC074C0870
:10067800803AFF0080307F02031D442BFF304B027D
:10068800031C472B482B532B7F3083120313CA00BC
:100698008030C9000030C8000030C700882B8312A2
:1006A80003134C08803AFF0080307F02031D5E2B45
:1006B80001304B020318612B622B6E2B0030831222
:1006C8000313CA000030C9000030C8000030C7005A
:1006D800C001882B831203134B08BB003B08C600DC
:1006E800FF30C705FF30C8057F30C9050030CA058F
:1006F800461C7F2B802B812BC9174608BB00031093
:100708003B0CBC003C08CA004008BB003B08CA04BC
:100718004A08B6004908B5004808B4004708B300BD
:1007280008008312031354088039D500550883162E
:100738000313A400831203135408D5005507D600E9
:10074800560883160313AB0083120313D31FAD2B74
:10075800AE2BB12B831603132B14831603132B080C
:100768000319B72BB82BCB2B2B0A031DBC2BBD2B86
:10077800C72B003083120313D4000030D30000309D
:10078800D2000030D1008312D317D401D52B00300A
:1007980083120313D4000030D3000030D20000309D
:1007A800D10050088039D500550883160313A406D4
:1007B800831203135008D5005507D6005608831630
:1007C8000313AC0083120313CF1FEB2BEC2BEF2B7F
:1007D800831603132C14831603132C080319F52B03
:1007E800F62B092C2C0A031DFA2BFB2B052C0030A9
:1007F80083120313D0000030CF000030CE00003049
:10080800CD008312CF17D001132C003083120313AD
:10081800D0000030CF000030CE000030CD005008AE
:100828004F044E044D04031D1A2C1B2C382C003089
:10083800D4000030D3000030D2000030D100803026
:10084800D3047F30D40483160313240883120313BC
:10085800D5005508D4045408D0005308CF005208D6
:10086800CE005108CD00342E831603132B08031D28
:100878003E2C3F2C4A2C003083120313D00000304A
:10088800CF000030CE000030CD00342E2B0883126C
:100898000313D500D6015608D800831603132C0875
:1008A800831203135502D700031CD80357087F3E51
:1008B80083160313A5008312031358080318013E77
:1008C800003E83160313A6008312031354088316ED
:1008D8000313A30083120313530883160313A20000
:1008E80083120313520883160313A1008312031300
:1008F800510883160313A000003083120313D40099
:100908000030D3000030D2000030D1000030831610
:100918000313AA000030A9000030A8000030A70087
:10092800AC011C2D2C0803199A2C9B2CCA2C0130C5
:1009380083120313D500031083160313A00DA10D12
:10094800A20DA30D83120313D50B9F2C0130D500E4
:100958000310D10DD20DD30DD40DD50BAC2C8316AD
:100968000313AA1FB82CB92CBC2C831203135114DF
:1009780001308312D500031083160313A70DA80DA9
:10098800A90DAA0D83120313D50BBF2C831250088F
:10099800831603132302031DE72C831203134F0846
:1009A800831603132202031DE72C831203134E0838
:1009B800831603132102031DE72C831203134D082A
:1009C800831603132002031CEA2CEB2C142D2A1780
:1009D800831203134D0883160313A0028312031313
:1009E8004E08031C4E0FF92CFC2C83160313A1028E
:1009F800831203134F08031C4F0F032D062D831674
:100A08000313A202831203135008031C500F0D2D69
:100A1800102D83160313A3028312031383160313E3
:100A2800013083120313D500550883160313AC074E
:100A38001A302C02031C212D222D962C2308220467
:100A4800210420040319292D2A2D542D2714542D4F
:100A58000130D5000310D10DD20DD30DD40DD50B17
:100A68002E2D83160313AA1F3A2D3B2D3E2D8312DC
:100A78000313511401308312D50003108316031396
:100A8800A70DA80DA90DAA0D83120313D50B412D8F
:100A9800FF3083160313A5070318A60AFF30A6071D
:100AA80083120313D31F592D5A2D2C2D831603138C
:100AB800AC01AA1F602D612D8D2DFF3027058312F3
:100AC8000313D500FF30831603132805831203137D
:100AD800D600FF3083160313290583120313D700AA
:100AE8007F30831603132A0583120313D80058088E
:100AF8005704560455040319822D832D882D831617
:100B08000313AC01AC0A8D2D511C8B2D8C2D8D2D12
:100B1800832D831603132C080319932D942DC92DA7
:100B2800013083120313D107003003180130D207B4
:100B3800003003180130D307003003180130D40700
:100B4800541CA72DA82DC92D5108D5005208D60030
:100B58005308D7005408D8000130D900580DD80CD4
:100B6800D70CD60CD50CD90BB22D5808D400570881
:100B7800D3005608D2005508D1000130831603135C
:100B8800A5070318A60A0030A6078316031326082C
:100B9800803AFF0080307F02031DD42DFF302502EC
:100BA800031CD72DD82DE82DFF3083160313A5007D
:100BB8000030A600003083120313D4000030D300A5
:100BC8000030D2000030D100831603132608803A83
:100BD800FF0080307F02031DF32D0130250203182A
:100BE800F62DF72D082E83160313A501A601003054
:100BF80083120313D4000030D3000030D200003039
:100C0800D10083160313A401831603132508831246
:100C18000313D500550883160313AB002B1C152EA0
:100C2800162E1A2E83120313D317202E7F30831209
:100C38000313D5005508D305831603132B08831215
:100C48000313D5000310550CD6005608D40083169C
:100C58000313240883120313D5005508D4042F2C3A
:100C68000800831203138101833083160313810064
:100C7800A0308B00880183120313880183160313A5
:100C8800071087100711871183120313071487149D
:100C9800071587150A128A1597240A128A11003037
:100CA80083120313A500A6000A128A15E5240A1266
:100CB8008A11831203132608E1002508E000443056
:100CC800D0008030CF000030CE000030CD00413061
:100CD800B600C830B5000030B4000030B30060087A
:100CE800A5006108A6000030A61BFF30A700A800D9
:100CF80001300A128A1544270A128A118312031333
:100D08002808BA002708B9002608B8002508B7003F
:100D18000A128A1134200A128A1183120313360820
:100D2800D4003508D3003408D2003308D1000A12A1
:100D38008A1195230A128A11831203135008831605
:100D48000313C200831203134F0883160313C10051
:100D5800831203134E0883160313C0008312031370
:100D68004D0883160313BF00420883120313A8001B
:100D780083160313410883120313A7008316031372
:100D8800400883120313A600831603133F08831237
:100D98000313A5004130AC002030AB000030AA009E
:100DA8000030A9000A128A15A0260A128A11031C0B
:100DB800DE2EDF2E1D2F83120313DF01831603138C
:100DC800420883120313BA008316031341088312DF
:100DD8000313B90083160313400883120313B800E2
:100DE800831603133F0883120313B7004230B6007B
:100DF800C830B5000030B4000030B3000A128A11C0
:100E080034200A128A11831203133608D0003508D9
:100E1800CF003408CE003308CD000A128A116D279E
:100E28000A128A11831203134E08DE004D08DD00F2
:100E38005B2F83120313DF01DF0A831603134208B3
:100E480083120313BA008316031341088312031392
:100E5800B90083160313400883120313B8008316DE
:100E680003133F0883120313B7004430B6007A30E7
:100E7800B5000030B4000030B3000A128A113420E3
:100E88000A128A11831203133608D0003508CF00DE
:100E98003408CE003308CD000A128A116D270A12D1
:100EA8008A11831203134E08DE004D08DD0003305B
:100EB80083120313DC008A30DB005530DA00DA0BCA
:100EC800632FDB0B632FDC0B632F532E0A128A115F
:100ED80010280310831203134F0D500DD100510831
:100EE800D7005708031D792F7A2F832F0030D000A1
:100EF8000030CF000030CE000030CD00E82F4D0884
:100F0800D1004E08D2004F08D3005008D4001F303B
:100F18000310D40CD30CD20CD10CFF3E031D8C2F24
:100F28005108D5005508D600CF17FF30CD05FF3042
:100F3800CE05FF30CF050030D0059630D702D71F39
:100F4800A62FA72FC12F5708803A973E0318AD2F19
:100F5800AE2FAF2F7A2F01300310D00CCF0CCE0C50
:100F6800CD0CFF3E031DB02F0130D1005108D7072B
:100F7800031DBF2FC02FAF2FD82F20305702031CBF
:100F8800C62FC72FD32F7A2F0130D1000310CD0DD4
:100F9800CE0DCF0DD00DD10BCA2F0130D702570877
:100FA800031DD72FD82FC82F56080319DC2FDD2F84
:100FB800E82FCD09CE09CF09D009CD0A0319CE0AE9
:100FC8000319CF0A0319D00A08000A128A15312614
:100FD8000A128A110A128A156C250A128A110B1133
:100FE8008312031324088A0023088400220E830036
:060FF800FE0E7E0E090052
:10192E00831203139F018030831603139F00080058
:10193E003F3406345B344F3466346D347D340734B3
:10194E007F346F347E088A007F0882000A128A155F
:10195E00A9240A128A158000840A04087D06031938
:10196E000034FF0A0319FE0AAD2C83120313AD00D7
:10197E00A901AA012508A700A8012708AB0028087D
:10198E00AC002D1CCB2CCC2CD22C2B08A907031869
:10199E00AA0A2C08AA0701300310AB0DAC0DFF3EAE
:1019AE00031DD32C0310AD0C2D08031DDF2CE02CD2
:1019BE00C82C2A08A6002908A500080083120313C4
:1019CE002508A70001300310A70DFF3E031DEA2CCA
:1019DE000310270D01389F00033083120313A90053
:1019EE008A30A8005530A700A70BFB2CA80BFB2CA8
:1019FE00A90BFB2C831203131F151F19072D082D7E
:101A0E00042D1E08A600831603131E08831203134B
:101A1E00A500080083120313A101FC1F172D182D1A
:101A2E001F2DFB09FC09FB0A0319FC0AA101A10ADF
:101A3E00FA1F222D232D282DF909FA09F90A031967
:101A4E00FA0A79087A0403192D2D2E2D5D2DA00189
:101A5E00A00A3C2D01300310F90DFA0DFF3E031DB7
:101A6E00322D0130FD007D08A007FA1F3F2D402DBD
:101A7E00312D7A087C02031D462D79087B02031C4A
:101A8E00492D4A2D502D7908FB027A08031CFC03C0
:101A9E00FC0201300310FA0CF90CFF3E031D512D10
:101AAE000130A002031D5C2D5D2D402D2108031970
:101ABE00612D622D672DFB09FC09FB0A0319FC0A37
:101ACE007C08FA007B08F900080083160313370818
:101ADE00AD3E8400831300088312031388000710A1
:101AEE001430F1007930F000F00B7B2DF10B7B2DD3
:101AFE00802D831203130714831603133908AD3E8A
:101B0E00840083130008831203138800871088173C
:101B1E001430F1007930F000F00B932DF10B932D72
:101B2E00982D831203138714831603133B08AD3EBF
:101B3E0084008313000883120313880007111430E6
:101B4E00F1007930F000F00BAA2DF10BAA2DAF2D7C
:101B5E00831203130715831603133D08AD3E84004D
:101B6E008313000883120313880087111430F100C9
:101B7E007930F000F00BC12DF10BC12DC62D831263
:101B8E00031387150800F601F11FCE2DCF2DD62D8C
:101B9E00F009F109F00A0319F10AF601F60AF31F2A
:101BAE00D92DDA2DE32DF209F309F20A0319F30AFE
:101BBE000130F4007408F606F701F801700871049C
:101BCE000319EA2DEB2D222EF501F50AF92D013020
:101BDE000310F00DF10DFF3E031DEF2D0130F4004B
:101BEE007408F507F11FFC2DFD2DEE2D01300310AD
:101BFE00F70DF80DFF3E031DFE2D71087302031D38
:101C0E000A2E70087202031C0D2E0E2E152E700851
:101C1E00F2027108031CF303F30277140130031070
:101C2E00F10CF00CFF3E031D162E0130F502031DC4
:101C3E00212E222EFD2D76080319262E272E2C2E30
:101C4E00F709F809F70A0319F80A7808F100770876
:101C5E00F0000800E830F0000330F10083120313A7
:101C6E005E08F3005D08F2000A128A15CA250A12F0
:101C7E008A15710883160313B8007008B7000A306E
:101C8E00F9000030FA006430F0000030F1008312E9
:101C9E0003135E08F3005D08F2000A128A15CA25C6
:101CAE000A128A157108FC007008FB000A128A15C8
:101CBE0011250A128A157A0883160313BA007908B9
:101CCE00B9000A30F9000030FA000A30F000003096
:101CDE00F100831203135E08F3005D08F2000A128E
:101CEE008A15CA250A128A157108FC007008FB00B5
:101CFE000A128A1511250A128A157A0883160313F9
:101D0E00BC007908BB000A30F9000030FA008312DB
:101D1E0003135E08FC005D08FB000A128A151125EC
:101D2E000A128A157A0883160313BE007908BD00BD
:101D3E0008000030831203132505AD000030260580
:101D4E00AE0080302705AF007F302805B000300888
:101D5E002F042E042D04031DB52EB62EBE2E0030DC
:101D6E00A8000030A7000030A6000030A50000300B
:101D7E002905AD0000302A05AE0080302B05AF00DE
:101D8E007F302C05B00030082F042E042D04031DC7
:101D9E00D12ED22EDA2E0030AC000030AB00003047
:101DAE00AA000030A900A81FDD2EDE2E022F003063
:101DBE00AD000030AE000030AF008030B00025081E
:101DCE00AD022608031C260FED2EEE2EAE022708BE
:101DDE00031C270FF32EF42EAF022808031C280F26
:101DEE00F92EFA2EB0023008A8002F08A7002E08F0
:101DFE00A6002D08A500AC1F052F062F2A2F003098
:101E0E00AD000030AE000030AF008030B0002908C9
:101E1E00AD022A08031C2A0F152F162FAE022B080F
:101E2E00031C2B0F1B2F1C2FAF022C08031C2C0F77
:101E3E00212F222FB0023008AC002F08AB002E0845
:101E4E00AA002D08A9008030A8068030AC062C0808
:101E5E002802031D3C2F2B082702031D3C2F2A08A6
:101E6E002602031D3C2F2908250203183F2F402F61
:101E7E00422F0310432F0314080083120313AD00E7
:101E8E002D0803194B2F4C2F602FA81F4F2F502FAB
:101E9E00602F2509AF002609B0002709B1002809D7
:101EAE00B200AF0A0319B00A0319B10A0319B20A34
:101EBE00682F2808B2002708B1002608B0002508B0
:101ECE00AF002808270426042504031D6F2F702F4A
:101EDE00792F0030A8000030A7000030A600003097
:101EEE00A500FF2F9630A9002908AE008B2F0130D8
:101EFE00A9002908AE0701300310B20CB10CB00CCA
:101F0E00AF0CFF3E031D832FFE303205031D902FB5
:101F1E00912F7E2FAD2F0130A9002908AE07013079
:101F2E00AF07003003180130B0070030031801303E
:101F3E00B107003003180130B20701300310B20CA4
:101F4E00B10CB00CAF0CFF3E031DA52FFF303205B8
:101F5E00031DB22FB32F922FBF2F0130AE020130CF
:101F6E00A9000310AF0DB00DB10DB20DA90BB82F16
:101F7E00B11BC22FC32FC92F02302E020318C82F38
:101F8E00C92FB42F2E18CC2FCD2FD52FFF30AF0544
:101F9E00FF30B0057F30B105FF30B2050310AE0C37
:101FAE002E08A900AA01AB01AC0118300310A90D2F
:101FBE00AA0DAB0DAC0DFF3E031DDD2F2908AF049E
:101FCE002A08B0042B08B1042C08B2042D080319FA
:101FDE00F12FF22FF72FA81FF52FF62FF72FB2178D
:101FEE003208A8003108A7003008A6002F08A50067
:021FFE000800D9
:02400E00723FFF
:00000001FF
