:060000000A128A1110280B
:10000800FE00030E83120313A2000408A3000A08CB
:10001800A4000A128A11E72F0A128A1113288313DF
:10002800B730FD000C30FE003930FF00AD308400E1
:100038000A128A1547240A128A1183160313B70174
:10004800B801B901BA01BB01BC01BD01BE018312EF
:100058000313DD01DE01DF0183010A128A11352E47
:100068008312031336088039BB003B08C0003608EA
:10007800BB003B07BC003C08C600B51F4428452808
:1000880046284614460803194A284B285A28460A7F
:10009800031D4F28502858280030B6000030B500FE
:1000A8000030B4000030B300B51762280030B60045
:1000B8000030B5000030B4000030B3003A08803991
:1000C800BB003B08C0063A08BB003B07BC003C0825
:1000D800C500B91F702871287228451445080319EE
:1000E800762877288628450A031D7B287C288428BB
:1000F8000030BA000030B9000030B8000030B70056
:10010800B9178E280030BA000030B9000030B800A6
:100118000030B70045080319922893289828460804
:10012800031D97289828A1280030B6000030B50094
:100138000030B4000030B300942B3308BB003B08F8
:10014800A50039080A128A1556240A128A11831240
:1001580003132608CC002508CB004B08BB00BC01C4
:10016800BD01BE013E08C4003D08C3003C08C200F2
:100178003B08C1004C08BB00BC01BD01BE013E08E4
:10018800CA003D08C9003C08C8003B08C70034083D
:10019800BB003B08A50038080A128A1556240A1223
:1001A8008A11831203132608CC002508CB004B08BC
:1001B800BB00BC01BD01BE013B08C1073C080311DF
:1001C8000318013E0319E928C2073D080311031863
:1001D800013E0319F028C3073E0803110318013E26
:1001E8000319F728C4074C08BB00BC01BD01BE01B8
:1001F8003B08C7073C0803110318013E03190529EA
:10020800C8073D0803110318013E03190C29C90743
:100218003E0803110318013E03191329CA073508BC
:10022800BB003B08A50037080A128A1556240A1293
:100238008A11831203132608CC002508CB004B082B
:10024800BB00BC01BD01BE013B08C1073C0803114E
:100258000318013E03193129C2073D080311031889
:10026800013E03193829C3073E0803110318013E4C
:1002780003193F29C4074C08BB00BC01BD01BE01DE
:100288003B08C7073C0803110318013E03194D2911
:10029800C8073D0803110318013E03195429C9076B
:1002A8003E0803110318013E03195B29CA070830E9
:1002B800BB000310C10DC20DC30DC40DBB0B5D29DE
:1002C8003408BB003B08A50037080A128A155624D3
:1002D8000A128A11831203132608CC002508CB00C2
:1002E8004B08BB004C08BC00BD01BE013B08C10760
:1002F8003C0803110318013E03198329C2073D086E
:1003080003110318013E03198A29C3073E08031184
:100318000318013E03199129C4073308BB003B08A1
:10032800A50038080A128A1556240A128A1183125F
:1003380003132608CC002508CB004B08BB004C084B
:10034800BC00BD01BE013B08C1073C0803110318EE
:10035800013E0319B029C2073D0803110318013EE5
:100368000319B729C3073E0803110318013E0319EF
:10037800BE29C4070830BB000310C10DC20DC30D50
:10038800C40DBB0BC0293308BB003B08A5003708C8
:100398000A128A1556240A128A1183120313260890
:1003A800CC002508CB004B08BB004C08BC00BD01A5
:1003B800BE013B08C1073C0803110318013E03199D
:1003C800E629C2073D0803110318013E0319ED2968
:1003D800C3073E0803110318013E0319F429C40793
:1003E8003408BB003B08A50039080A128A155624B0
:1003F8000A128A11831203132608CC002508CB00A1
:100408004B08BB004C08BC00BD01BE013B08C70738
:100418003C0803110318013E0319132AC8073D08B5
:1004280003110318013E03191A2AC9073E080311CC
:100438000318013E0319212ACA073508BB003B08E7
:10044800A50038080A128A1556240A128A1183123E
:1004580003132608CC002508CB004B08BB004C082A
:10046800BC00BD01BE013B08C7073C0803110318C7
:10047800013E0319402AC8073D0803110318013E2D
:100488000319472AC9073E0803110318013E031937
:100498004E2ACA073508BB003B08A50039080A12CE
:1004A8008A1556240A128A11831203132608CC00CF
:1004B8002508CB004B08BB004C08BC00BD01BE01A1
:1004C80008300310BB0DBC0DBD0DBE0DFF3E031D56
:1004D800652A3B08C7073C0803110318013E0319A6
:1004E800762AC8073D0803110318013E03197D2A1F
:1004F800C9073E0803110318013E0319842ACA07D5
:100508004108BB004208BC004308BD004408BE00C7
:1005180018300310BE0CBD0CBC0CBB0CFF3E031DF9
:100528008D2A3B08C7073C0803110318013E03192D
:100538009E2AC8073D0803110318013E0319A52A7E
:10054800C9073E0803110318013E0319AC2ACA075C
:100558000830BB000310C10DC20DC30DC40DBB0B89
:10056800AE2A46084507BB00BC01BC0D3B08823ECD
:10057800CB003C080318013EFF3ECC00E02A0130C6
:10058800BB000310C70DC80DC90DCA0DBB0BC52A8A
:10059800C41FCF2AD02AD12A47140130BB00031028
:1005A800C10DC20DC30DC40DBB0BD32AFF30CB0741
:1005B8000318CC0AFF30CC07C91FE32AE42AC32A50
:1005C800C501C41FE82AE92A052BFF304105BB00F5
:1005D800FF304205BC00FF304305BD007F304405B5
:1005E800BE003E083D043C043B040319FC2AFD2AD6
:1005F800002BC501C50A052B471C032B042B052B13
:10060800FD2A45080319092B0A2B3B2B0130C70784
:10061800003003180130C807003003180130C9073B
:10062800003003180130CA074A1C1B2B1C2B3B2B1C
:100638004708BB004808BC004908BD004A08BE007E
:100648000130BF003E0DBE0CBD0CBC0CBB0CBF0B7B
:10065800262B3E08CA003D08C9003C08C8003B08D4
:10066800C7000130CB070318CC0A0030CC074C0870
:10067800803AFF0080307F02031D442BFF304B027D
:10068800031C472B482B532B7F3083120313CA00BC
:100698008030C9000030C8000030C700882B8312A2
:1006A80003134C08803AFF0080307F02031D5E2B45
:1006B80001304B020318612B622B6E2B0030831222
:1006C8000313CA000030C9000030C8000030C7005A
:1006D800C001882B831203134B08BB003B08C600DC
:1006E800FF30C705FF30C8057F30C9050030CA058F
:1006F800461C7F2B802B812BC9174608BB00031093
:100708003B0CBC003C08CA004008BB003B08CA04BC
:100718004A08B6004908B5004808B4004708B300BD
:1007280008008312031354088039D500550883162E
:100738000313A400831203135408D5005507D600E9
:10074800560883160313AB0083120313D31FAD2B74
:10075800AE2BB12B831603132B14831603132B080C
:100768000319B72BB82BCB2B2B0A031DBC2BBD2B86
:10077800C72B003083120313D4000030D30000309D
:10078800D2000030D1008312D317D401D52B00300A
:1007980083120313D4000030D3000030D20000309D
:1007A800D10050088039D500550883160313A406D4
:1007B800831203135008D5005507D6005608831630
:1007C8000313AC0083120313CF1FEB2BEC2BEF2B7F
:1007D800831603132C14831603132C080319F52B03
:1007E800F62B092C2C0A031DFA2BFB2B052C0030A9
:1007F80083120313D0000030CF000030CE00003049
:10080800CD008312CF17D001132C003083120313AD
:10081800D0000030CF000030CE000030CD005008AE
:100828004F044E044D04031D1A2C1B2C382C003089
:10083800D4000030D3000030D2000030D100803026
:10084800D3047F30D40483160313240883120313BC
:10085800D5005508D4045408D0005308CF005208D6
:10086800CE005108CD00342E831603132B08031D28
:100878003E2C3F2C4A2C003083120313D00000304A
:10088800CF000030CE000030CD00342E2B0883126C
:100898000313D500D6015608D800831603132C0875
:1008A800831203135502D700031CD80357087F3E51
:1008B80083160313A5008312031358080318013E77
:1008C800003E83160313A6008312031354088316ED
:1008D8000313A30083120313530883160313A20000
:1008E80083120313520883160313A1008312031300
:1008F800510883160313A000003083120313D40099
:100908000030D3000030D2000030D1000030831610
:100918000313AA000030A9000030A8000030A70087
:10092800AC011C2D2C0803199A2C9B2CCA2C0130C5
:1009380083120313D500031083160313A00DA10D12
:10094800A20DA30D83120313D50B9F2C0130D500E4
:100958000310D10DD20DD30DD40DD50BAC2C8316AD
:100968000313AA1FB82CB92CBC2C831203135114DF
:1009780001308312D500031083160313A70DA80DA9
:10098800A90DAA0D83120313D50BBF2C831250088F
:10099800831603132302031DE72C831203134F0846
:1009A800831603132202031DE72C831203134E0838
:1009B800831603132102031DE72C831203134D082A
:1009C800831603132002031CEA2CEB2C142D2A1780
:1009D800831203134D0883160313A0028312031313
:1009E8004E08031C4E0FF92CFC2C83160313A1028E
:1009F800831203134F08031C4F0F032D062D831674
:100A08000313A202831203135008031C500F0D2D69
:100A1800102D83160313A3028312031383160313E3
:100A2800013083120313D500550883160313AC074E
:100A38001A302C02031C212D222D962C2308220467
:100A4800210420040319292D2A2D542D2714542D4F
:100A58000130D5000310D10DD20DD30DD40DD50B17
:100A68002E2D83160313AA1F3A2D3B2D3E2D8312DC
:100A78000313511401308312D50003108316031396
:100A8800A70DA80DA90DAA0D83120313D50B412D8F
:100A9800FF3083160313A5070318A60AFF30A6071D
:100AA80083120313D31F592D5A2D2C2D831603138C
:100AB800AC01AA1F602D612D8D2DFF3027058312F3
:100AC8000313D500FF30831603132805831203137D
:100AD800D600FF3083160313290583120313D700AA
:100AE8007F30831603132A0583120313D80058088E
:100AF8005704560455040319822D832D882D831617
:100B08000313AC01AC0A8D2D511C8B2D8C2D8D2D12
:100B1800832D831603132C080319932D942DC92DA7
:100B2800013083120313D107003003180130D207B4
:100B3800003003180130D307003003180130D40700
:100B4800541CA72DA82DC92D5108D5005208D60030
:100B58005308D7005408D8000130D900580DD80CD4
:100B6800D70CD60CD50CD90BB22D5808D400570881
:100B7800D3005608D2005508D1000130831603135C
:100B8800A5070318A60A0030A6078316031326082C
:100B9800803AFF0080307F02031DD42DFF302502EC
:100BA800031CD72DD82DE82DFF3083160313A5007D
:100BB8000030A600003083120313D4000030D300A5
:100BC8000030D2000030D100831603132608803A83
:100BD800FF0080307F02031DF32D0130250203182A
:100BE800F62DF72D082E83160313A501A601003054
:100BF80083120313D4000030D3000030D200003039
:100C0800D10083160313A401831603132508831246
:100C18000313D500550883160313AB002B1C152EA0
:100C2800162E1A2E83120313D317202E7F30831209
:100C38000313D5005508D305831603132B08831215
:100C48000313D5000310550CD6005608D40083169C
:100C58000313240883120313D5005508D4042F2C3A
:100C68000800831203138101833083160313810064
:100C7800A0308B00880183120313880183160313A5
:100C8800071087100711871183120313071487149D
:100C9800071587150A128A1531240A128A1100309D
:100CA8000A128A157F240A128A118312031326084E
:100CB800E1002508E0004430D0008030CF0000304B
:100CC800CE000030CD004130B600C830B50000304D
:100CD800B4000030B3006008A5006108A600003029
:100CE800A61BFF30A700A80001300A128A1581262A
:100CF8000A128A11831203132808BA002708B900B8
:100D08002608B8002508B7000A128A1134200A12EA
:100D18008A11831203133608D4003508D300340827
:100D2800D2003308D1000A128A1195230A128A11B7
:100D380083120313500883160313C200831203138C
:100D48004F0883160313C100831203134E0883163A
:100D58000313C000831203134D0883160313BF0047
:100D6800420883120313A800831603134108831251
:100D78000313A70083160313400883120313A60066
:100D8800831603133F0883120313A5004130AC00F8
:100D98002030AB000030AA000030A9000A128A15E2
:100DA800DD250A128A11031CDA2EDB2E192F831275
:100DB8000313DF0183160313420883120313BA00D7
:100DC80083160313410883120313B9008316031310
:100DD800400883120313B800831603133F088312D5
:100DE8000313B7004230B600C830B5000030B40075
:100DF8000030B3000A128A1134200A128A118312B1
:100E080003133608D0003508CF003408CE00330865
:100E1800CD000A128A116B270A128A118312031352
:100E28004E08DE004D08DD00592F013083120313F0
:100E3800DA005A08DF0083160313420883120313EB
:100E4800BA0083160313410883120313B9008316EB
:100E58000313400883120313B800831603133F08D3
:100E680083120313B7004430B6007A30B50000305F
:100E7800B4000030B3000A128A1134200A128A1111
:100E8800831203133608D0003508CF003408CE008B
:100E98003308CD000A128A116B270A128A118312AD
:100EA80003134E08DE004D08DD00033083120313E0
:100EB800DC008A30DB005530DA00DA0B612FDB0BFF
:100EC800612FDC0B612F532E0A128A111028031090
:100ED800831203134F0D500DD1005108D700570846
:100EE800031D772F782F812F0030D0000030CF00DE
:100EF8000030CE000030CD00E62F4D08D1004E085E
:100F0800D2004F08D3005008D4001F300310D40C6F
:100F1800D30CD20CD10CFF3E031D8A2F5108D500EB
:100F28005508D600CF17FF30CD05FF30CE05FF306E
:100F3800CF050030D0059630D702D71FA42FA52F94
:100F4800BF2F5708803A973E0318AB2FAC2FAD2F11
:100F5800782F01300310D00CCF0CCE0CCD0CFF3EF7
:100F6800031DAE2F0130D1005108D707031DBD2F37
:100F7800BE2FAD2FD62F20305702031CC42FC52FEC
:100F8800D12F782F0130D1000310CD0DCE0DCF0D0C
:100F9800D00DD10BC82F0130D7025708031DD52F0C
:100FA800D62FC62F56080319DA2FDB2FE62FCD09C7
:100FB800CE09CF09D009CD0A0319CE0A0319CF0AE1
:100FC8000319D00A08000A128A156E250A128A1116
:100FD8000A128A153D270A128A110B11831203136C
:100FE80024088A0023088400220E8300FE0E7E0E49
:020FF8000900EE
:10186200831203139F018030831603139F00080025
:101872003F3406345B344F3466346D347D34073480
:101882007F346F347E088A007F0882000A128A152C
:1018920043240A128A158000840A04087D0603196B
:1018A2000034FF0A0319FE0A472C83120313AD000A
:1018B200A901AA012508A700A8012708AB0028084A
:1018C200AC002D1C652C662C6C2C2B08A907031868
:1018D200AA0A2C08AA0701300310AB0DAC0DFF3E7B
:1018E200031D6D2C0310AD0C2D08031D792C7A2CD1
:1018F200622C2A08A6002908A500080083120313F7
:10190200AA002A08A70001300310A70DFF3E031DFD
:10191200852C0310270D01389F0003308312031317
:10192200A9008A30A8005530A700A70B962CA80B57
:10193200962CA90B962C831203139F149F18A22C8A
:10194200A32C9F2C1E08A600831603131E088312C5
:101952000313A500080083120313A101FC1FB22C7C
:10196200B32CBA2CFB09FC09FB0A0319FC0AA101DE
:10197200A10AFA1FBD2CBE2CC32CF909FA09F90AD7
:101982000319FA0A79087A040319C82CC92CF82C0D
:10199200A001A00AD72C01300310F90DFA0DFF3E69
:1019A200031DCD2C0130FD007D08A007FA1FDA2CA3
:1019B200DB2CCC2C7A087C02031DE12C79087B02FB
:1019C200031CE42CE52CEB2C7908FB027A08031C9F
:1019D200FC03FC0201300310FA0CF90CFF3E031D5C
:1019E200EC2C0130A002031DF72CF82CDB2C210873
:1019F2000319FC2CFD2C022DFB09FC09FB0A03191F
:101A0200FC0A7C08FA007B08F9000800F601F11FC5
:101A12000B2D0C2D132DF009F109F00A0319F10A0F
:101A2200F601F60AF31F162D172D202DF209F309E0
:101A3200F20A0319F30A0130F4007408F606F701FA
:101A4200F801700871040319272D282D5F2DF50167
:101A5200F50A362D01300310F00DF10DFF3E031D86
:101A62002C2D0130F4007408F507F11F392D3A2DA1
:101A72002B2D01300310F70DF80DFF3E031D3B2DFA
:101A820071087302031D472D70087202031C4A2D50
:101A92004B2D522D7008F2027108031CF303F3025E
:101AA200771401300310F10CF00CFF3E031D532D8F
:101AB2000130F502031D5E2D5F2D3A2D76080319C4
:101AC200632D642D692DF709F809F70A0319F80A3D
:101AD2007808F1007708F0000800E830F0000330E1
:101AE200F100831203135E08F3005D08F2000A128C
:101AF2008A1507250A128A15710883160313B8007E
:101B02007008B7000A30F9000030FA006430F000C3
:101B12000030F100831203135E08F3005D08F20047
:101B22000A128A1507250A128A157108FC00700824
:101B3200FB000A128A15AC240A128A157A08831647
:101B42000313BA007908B9000A30F9000030FA002C
:101B52000A30F0000030F100831203135E08F30034
:101B62005D08F2000A128A1507250A128A15710801
:101B7200FC007008FB000A128A15AC240A128A15AE
:101B82007A0883160313BC007908BB000A30F900F7
:101B92000030FA00831203135E08FC005D08FB00AC
:101BA2000A128A15AC240A128A157A0883160313BC
:101BB200BE007908BD00080000308312031325051A
:101BC200AD0000302605AE0080302705AF007F3023
:101BD2002805B00030082F042E042D04031DF22D19
:101BE200F32DFB2D0030A8000030A7000030A60026
:101BF2000030A50000302905AD0000302A05AE00F6
:101C020080302B05AF007F302C05B00030082F0448
:101C12002E042D04031D0E2E0F2E172E0030AC00A5
:101C22000030AB000030AA000030A900A81F1A2E15
:101C32001B2E3F2E0030AD000030AE000030AF0052
:101C42008030B0002508AD022608031C260F2A2E7C
:101C52002B2EAE022708031C270F302E312EAF0287
:101C62002808031C280F362E372EB0023008A80091
:101C72002F08A7002E08A6002D08A500AC1F422E93
:101C8200432E672E0030AD000030AE000030AF00B2
:101C92008030B0002908AD022A08031C2A0F522EF8
:101CA200532EAE022B08031C2B0F582E592EAF02B7
:101CB2002C08031C2C0F5E2E5F2EB0023008AC00E5
:101CC2002F08AB002E08AA002D08A9008030A80614
:101CD2008030AC062C082802031D792E2B0827021F
:101CE200031D792E2A082602031D792E29082502B2
:101CF20003187C2E7D2E7F2E0310802E03140800E5
:101D020083120313AD002D080319882E892E9D2EF0
:101D1200A81F8C2E8D2E9D2E2509AF002609B000FE
:101D22002709B1002809B200AF0A0319B00A031942
:101D3200B10A0319B20AA52E2808B2002708B10079
:101D42002608B0002508AF00280827042604250429
:101D5200031DAC2EAD2EB62E0030A8000030A70019
:101D62000030A6000030A5003C2F9630A9002908BB
:101D7200AE00C82E0130A9002908AE0701300310B9
:101D8200B20CB10CB00CAF0CFF3E031DC02EFE30E6
:101D92003205031DCD2ECE2EBB2EEA2E0130A90018
:101DA2002908AE070130AF07003003180130B00731
:101DB200003003180130B107003003180130B207B8
:101DC20001300310B20CB10CB00CAF0CFF3E031D7E
:101DD200E22EFF303205031DEF2EF02ECF2EFC2E09
:101DE2000130AE020130A9000310AF0DB00DB10DEC
:101DF200B20DA90BF52EB11BFF2E002F062F0230BC
:101E02002E020318052F062FF12E2E18092F0A2F46
:101E1200122FFF30AF05FF30B0057F30B105FF3024
:101E2200B2050310AE0C2E08A900AA01AB01AC0149
:101E320018300310A90DAA0DAB0DAC0DFF3E031D0A
:101E42001A2F2908AF042A08B0042B08B1042C0861
:101E5200B2042D0803192E2F2F2F342FA81F322F33
:101E6200332F342FB2173208A8003108A7003008E8
:101E7200A6002F08A5000800831203135F08031DA4
:101E8200432F442FA22F831603133708AD3E84003D
:101E92008313000883120313880007101430F10023
:101EA2007930F000F00B532FF10B532F582F831280
:101EB20003130714831603133908AD3E84008313FA
:101EC2000008831203138800871088171430F1006A
:101ED2007930F000F00B6B2FF10B6B2F702F831208
:101EE20003138714831603133B08AD3E8400831348
:101EF200000883120313880007111430F1007930AF
:101F0200F000F00B822FF10B822F872F8312031325
:101F12000715831603133D08AD3E840083130008A2
:101F220083120313880087111430F1007930F00016
:101F3200F00B992FF10B992F9E2F83120313871504
:101F4200FF2F831603133708AD3E84008313000866
:101F5200831203138800071088171430F1007930B8
:101F6200F000F00BB22FF10BB22FB72F8312031335
:101F72000714831603133908AD3E84008313000847
:101F820083120313880087101430F1007930F000B7
:101F9200F00BC92FF10BC92FCE2F83120313871415
:101FA200831603133B08AD3E84008313000883129B
:101FB2000313880007111430F1007930F000F00BA0
:101FC200E02FF10BE02FE52F831203130715831681
:101FD20003133D08AD3E84008313000883120313EC
:101FE200880087111430F1007930F000F00BF72FE0
:0E1FF200F10BF72FFC2F831203138715080045
:04400E00D220FF3F7E
:00000001FF
