:060000000A128A1110280B
:10000800FE00030E83120313AB000408AC000A08B9
:10001800AD000A128A15932A0A128A11132883132B
:10002800CC30FD000730FE00EE30FF00C230840007
:100038000A128A1584220A128A11D101D201D30127
:10004800D401D501D601D701D801D90183010A12FB
:100058008A118D2D831203133F088039C400440888
:1000680083160313A000831203133F08C400440738
:10007800C500450883160313A60083120313BE1F89
:10008800462847284A288316031326148316031381
:1000980026080319502851286328260A031D5528C5
:1000A80056286028003083120313BF000030BE00BA
:1000B8000030BD000030BC008312BE176D28003030
:1000C80083120313BF000030BE000030BD000030B3
:1000D800BC0043088039C400440883160313A006F3
:1000E800831203134308C4004407C5004508831658
:1000F8000313A10083120313C21F832884288728AF
:1001080083160313211483160313210803198D285A
:100118008E28A028210A031D922893289D280030A4
:1001280083120313C3000030C2000030C100003046
:10013800C0008312C217AA28003083120313C30019
:100148000030C2000030C1000030C0008316031325
:1001580021080319B028B128B6282608031DB52898
:10016800B628C128003083120313BF000030BE0038
:100178000030BD000030BC008C2D831203133C08F6
:10018800C4004408AE0042080A128A15A9220A12BD
:100198008A11831203132F0883160313AC008312EA
:1001A80003132E0883160313AB002B0883120313C3
:1001B800C400C501C601C701470883160313A5007B
:1001C80083120313460883160313A4008312031330
:1001D800450883160313A3008312031344088316E8
:1001E8000313A2002C0883120313C400C501C6011F
:1001F800C701470883160313AA008312031346088E
:1002080083160313A90083120313450883160313E7
:10021800A80083120313440883160313A70083124C
:1002280003133D08C4004408AE0041080A128A15A9
:10023800A9220A128A11831203132F0883160313A3
:10024800AC00831203132E0883160313AB002B088C
:1002580083120313C400C501C601C70144088316ED
:100268000313A20783120313450803110318013E61
:100278000319412983160313A3078312031346089E
:1002880003110318013E03194C2983160313A4070D
:1002980083120313470803110318013E0319572952
:1002A80083160313A50783120313831603132C085D
:1002B80083120313C400C501C601C701440883168D
:1002C8000313A70783120313450803110318013EFC
:1002D8000319712983160313A80783120313460809
:1002E80003110318013E03197C2983160313A90778
:1002F80083120313470803110318013E03198729C2
:1003080083160313AA078312031383160313831296
:1003180003133E08C4004408AE0040080A128A15B8
:10032800A9220A128A11831203132F0883160313B2
:10033800AC00831203132E0883160313AB002B089B
:1003480083120313C400C501C601C70144088316FC
:100358000313A20783120313450803110318013E70
:100368000319B92983160313A30783120313460835
:1003780003110318013E0319C42983160313A407A4
:1003880083120313470803110318013E0319CF29E9
:1003980083160313A50783120313831603132C086C
:1003A80083120313C400C501C601C701440883169C
:1003B8000313A70783120313450803110318013E0B
:1003C8000319E92983160313A807831203134608A0
:1003D80003110318013E0319F42983160313A9070F
:1003E80083120313470803110318013E0319FF2959
:1003F80083160313AA078312031383160313083003
:1004080083120313C400031083160313A20DA30D54
:10041800A40DA50D83120313C40B072A3D08C400BD
:100428004408AE0040080A128A15A9220A128A1145
:10043800831203132F0883160313AC0083120313CC
:100448002E0883160313AB002B0883120313C40072
:10045800831603132C0883120313C500C601C701B2
:10046800440883160313A2078312031345080311D4
:100478000318013E0319432A83160313A3078312A3
:100488000313460803110318013E03194E2A831665
:100498000313A40783120313470803110318013E2B
:1004A8000319592A83160313A50783120313831606
:1004B8000313831203133C08C4004408AE00410828
:1004C8000A128A15A9220A128A11831203132F0805
:1004D80083160313AC00831203132E088316031329
:1004E800AB002B0883120313C400831603132C08D4
:1004F80083120313C500C601C701440883160313FA
:10050800A20783120313450803110318013E0319B8
:10051800902A83160313A3078312031346080311B3
:100528000318013E03199B2A83160313A407831299
:100538000313470803110318013E0319A62A83165B
:100548000313A507831203138316031308308312BA
:100558000313C400031083160313A20DA30DA40DE7
:10056800A50D83120313C40BAE2A3C08C40044082B
:10057800AE0040080A128A15A9220A128A118312AB
:1005880003132F0883160313AC00831203132E08DA
:1005980083160313AB002B0883120313C4008316BE
:1005A80003132C0883120313C500C601C7014408AE
:1005B80083160313A20783120313450803110318B4
:1005C800013E0319EA2A83160313A30783120313B0
:1005D800460803110318013E0319F52A831603136D
:1005E800A40783120313470803110318013E0319D4
:1005F800002B83160313A507831203138316031313
:10060800831203133D08C4004408AE0042080A12CE
:100618008A15A9220A128A11831203132F08831636
:100628000313AC00831203132E0883160313AB00C5
:100638002B0883120313C400831603132C08831298
:100648000313C500C601C701440883160313A7078F
:1006580083120313450803110318013E0319372BAE
:1006680083160313A80783120313460803110318FC
:10067800013E0319422B83160313A90783120313A0
:10068800470803110318013E03194D2B8316031362
:10069800AA078312031383160313831203133E0856
:1006A800C4004408AE0041080A128A15A9220A1299
:1006B8008A11831203132F0883160313AC008312C5
:1006C80003132E0883160313AB002B08831203139E
:1006D800C400831603132C0883120313C500C60134
:1006E800C701440883160313A70783120313450899
:1006F80003110318013E0319842B83160313A8075B
:1007080083120313460803110318013E03198F2BA4
:1007180083160313A9078312031347080311031849
:10072800013E03199A2B83160313AA078312031396
:1007380083160313831203133E08C4004408AE0053
:1007480042080A128A15A9220A128A11831203136F
:100758002F0883160313AC00831203132E08831685
:100768000313AB002B0883120313C400831603136F
:100778002C0883120313C500C601C70108300310F3
:10078800C40DC50DC60DC70DFF3E031DC32B440880
:1007980083160313A70783120313450803110318CD
:1007A800013E0319DA2B83160313A80783120313D8
:1007B800460803110318013E0319E52B831603139A
:1007C800A90783120313470803110318013E0319ED
:1007D800F02B83160313AA0783120313831603133C
:1007E800220883120313C4008316031323088312F9
:1007F8000313C50083160313240883120313C600CA
:1008080083160313250883120313C7001830031037
:10081800C70CC60CC50CC40CFF3E031D0B2C4408AA
:1008280083160313A707831203134508031103183C
:10083800013E0319222C83160313A80783120313FE
:10084800460803110318013E03192D2C83160313C0
:10085800A90783120313470803110318013E03195C
:10086800382C83160313AA07831203138316031362
:10087800083083120313C400031083160313A20D58
:10088800A30DA40DA50D83120313C40B402C8316CE
:1008980003132608210783120313C400C501C50DDD
:1008A8004408823E83160313AB00831203134508E2
:1008B8000318013EFF3E83160313AC00902C013051
:1008C80083120313C400031083160313A70DA80D86
:1008D800A90DAA0D83120313C40B672C83160313E7
:1008E800A51F772C782C792C271401308312031339
:1008F800C400031083160313A20DA30DA40DA50DA8
:1009080083120313C40B7D2CFF3083160313AB072C
:100918000318AC0AFF30AC07A91F932C942C632C46
:10092800A101A51F982C992CC72CFF3022058312F2
:100938000313C400FF308316031323058312031324
:10094800C500FF3083160313240583120313C60062
:100958007F3083160313250583120313C700470846
:100968004604450444040319BA2CBB2CC02C831636
:100978000313A101A10AC72C83160313271CC52C36
:10098800C62CC72CBB2C21080319CB2CCC2C192D19
:100998000130A707003003180130A80700300318FA
:1009A8000130A907003003180130AA072A1CDD2CE2
:1009B800DE2C192D270883120313C4008316031392
:1009C800280883120313C50083160313290883120A
:1009D8000313C600831603132A0883120313C700E0
:1009E8000130C800470DC70CC60CC50CC40CC80B99
:1009F800F62C470883160313AA008312031346082C
:100A080083160313A90083120313450883160313DF
:100A1800A80083120313440883160313A7000130A8
:100A2800AB070318AC0A0030AC072C08803AFF006B
:100A380080307F02031D222DFF302B02031C252D41
:100A4800262D312D7F3083160313AA008030A9008C
:100A58000030A8000030A7006E2D831603132C0861
:100A6800803AFF0080307F02031D3C2D01302B02AD
:100A780003183F2D402D4C2D003083160313AA0078
:100A88000030A9000030A8000030A700A0016E2D9A
:100A9800831603132B0883120313C4004408831618
:100AA8000313A600FF30A705FF30A8057F30A9056E
:100AB8000030AA05261C612D622D632DA917260872
:100AC80083120313C4000310440CC50045088316A1
:100AD8000313AA00200883120313C40044088316D2
:100AE8000313AA042A0883120313BF0083160313EF
:100AF800290883120313BE008316031328088312E0
:100B08000313BD0083160313270883120313BC00C5
:100B180008008312031381018330831603138100B5
:100B2800A0308B00880183120313880183160313F6
:100B380007108710071187118312031307148714EE
:100B4800071587150A128A11F8270A128A11003028
:100B580083120313AE00AF000A128A15D2220A12BA
:100B68008A11831203132F08DF002E08DE00443099
:100B7800CC008030CB000030CA000030C9004130C2
:100B8800BF00C830BE000030BD000030BC005E08A9
:100B9800AE005F08AF00B001B10100300A128A113F
:100BA8008E260A128A11831203133108C3003008F3
:100BB800C2002F08C1002E08C0000A128A112E2078
:100BC8000A128A11831203133F08D0003E08CF008F
:100BD8003D08CE003C08CD000A128A156B250A1282
:100BE8008A11831203134C08DD004B08DC004A0805
:100BF800DB004908DA005D08B1005C08B0005B085A
:100C0800AF005A08AE004130B5002030B4000030C3
:100C1800B3000030B2000A128A114A270A128A1158
:100C2800031C172E182E4A2E83120313D9015D08B0
:100C3800B1005C08B0005B08AF005A08AE000A12A9
:100C48008A1552240A128A11831203133108BC0030
:100C58003008BB002F08BA002E08B9000030C000C9
:100C68000030BF000030BE006430BD000A128A1593
:100C7800FE220A128A11831203133C08D4003B088F
:100C8800D3003A08D2003908D1007C2E831203130E
:100C9800D901D90A5D08B1005C08B0005B08AF0053
:100CA8005A08AE000A128A1552240A128A118312AF
:100CB80003133108BC003008BB002F08BA002E0807
:100CC800B9000030C0000030BF000330BE00E8307B
:100CD800BD000A128A15FE220A128A118312031312
:100CE8003C08D4003B08D3003A08D2003908D100A8
:100CF800033083160313C1008A30C0005530BF008B
:100D0800BF0B842EC00B842EC10B842EAB2D0A1270
:100D18008A11102883120313B60036080319952E7A
:100D2800962EAA2EB11F992E9A2EAA2E2E09B800F9
:100D38002F09B9003009BA003109BB00B80A0319F4
:100D4800B90A0319BA0A0319BB0AB22E3108BB0043
:100D58003008BA002F08B9002E08B800310830044E
:100D68002F042E04031DB92EBA2EC32E0030B10055
:100D78000030B0000030AF000030AE00492F963090
:100D8800B2003208B700D52E0130B2003208B707DA
:100D980001300310BB0CBA0CB90CB80CFF3E031D94
:100DA800CD2EFE303B05031DDA2EDB2EC82EF72E86
:100DB8000130B2003208B7070130B8070030031815
:100DC8000130B907003003180130BA0700300318A2
:100DD8000130BB0701300310BB0CBA0CB90CB80CBE
:100DE800FF3E031DEF2EFF303B05031DFC2EFD2E9D
:100DF800DC2E092F0130B7020130B2000310B80D04
:100E0800B90DBA0DBB0DB20B022FBA1B0C2F0D2F4B
:100E1800132F023037020318122F132FFE2E371804
:100E2800162F172F1F2FFF30B805FF30B9057F3059
:100E3800BA05FF30BB050310B70C3708B200B30181
:100E4800B401B50118300310B20DB30DB40DB50DD2
:100E5800FF3E031D272F3208B8043308B9043408AD
:100E6800BA043508BB04360803193B2F3C2F412F21
:100E7800B11F3F2F402F412FBB173B08B1003A0845
:100E8800B0003908AF003808AE00080000308312FF
:100E980003132E05B60000302F05B700803030054B
:100EA800B8007F303105B9003908380437043604F2
:100EB800031D5F2F602F682F0030B1000030B00095
:100EC8000030AF000030AE0000303205B600003010
:100ED8003305B70080303405B8007F303505B900D8
:100EE8003908380437043604031D7B2F7C2F842FE0
:100EF8000030B5000030B4000030B3000030B2005C
:100F0800B11F872F882FAC2F0030B6000030B700F4
:100F18000030B8008030B9002E08B6022F08031C34
:100F28002F0F972F982FB7023008031C300F9D2FD3
:100F38009E2FB8023108031C310FA32FA42FB9022A
:100F48003908B1003808B0003708AF003608AE00DD
:100F5800B51FAF2FB02FD42F0030B6000030B70028
:100F68000030B8008030B9003208B6023308031CDC
:100F7800330FBF2FC02FB7023408031C340FC52FFF
:100F8800C62FB8023508031C350FCB2FCC2FB9025A
:100F98003908B5003808B4003708B3003608B2007D
:100FA8008030B1068030B50635083102031DE62FC2
:100FB80034083002031DE62F33082F02031DE62FE5
:100FC80032082E020318E92FEA2FEC2F0310ED2F19
:100FD800031408003F3406345B344F3466346D34F0
:100FE8007D3407347F346F34831203139F018030BC
:080FF800831603139F0008009B
:101500007E088A007F0882000A128A1580220A1249
:101510008A158000840A04087D0603190034FF0A36
:101520000319FE0A842A0A128A15CE240A128A1581
:101530000A128A1546230A128A150B118312031305
:101540002D088A002C0884002B0E8300FE0E7E0ED0
:10155000090083120313B600B201B3012E08B000D4
:10156000B1013008B4003108B500361CB82AB92AD8
:10157000BF2A3408B2070318B30A3508B30701308D
:101580000310B40DB50DFF3E031DC02A0310B60CA9
:101590003608031DCC2ACD2AB52A3308AF003208FD
:1015A000AE000800831203132E08B00001300310B0
:1015B000B00DFF3E031DD72A0310300D01389F00E8
:1015C000033083120313B2008A30B1005530B000EB
:1015D000B00BE82AB10BE82AB20BE82A83120313F6
:1015E0009F149F18F42AF52AF12A1E08AF008316CB
:1015F00003131E0883120313AE0008000030831289
:101600000313C5000030C4000030C3000030C20026
:10161000391C0B2B0C2B232B3D08C2073E08031152
:101620000318013E0319152BC3073F0803110318C4
:10163000013E03191C2BC407400803110318013E87
:101640000319232BC5070130C1000310BD0DBE0DCA
:10165000BF0DC00DC10B252B01300310BC0CBB0C02
:10166000BA0CB90CFF3E031D2D2B3C083B043A0479
:101670003904031D3C2B3D2B082B4508BC004408B6
:10168000BB004308BA004208B900080083120313E4
:101690005508C23E840083130008880007101430E8
:1016A000F1007930F000F00B532BF10B532B582B3A
:1016B0008312031307145608C23E840083130008E4
:1016C0008800871088171430F1007930F000F00B93
:1016D000672BF10B672B6C2B8312031387145708AE
:1016E000C23E840083130008880007111430F10003
:1016F0007930F000F00B7A2BF10B7A2B7F2B8312D1
:10170000031307155808C23E84008313000888009D
:1017100087111430F1007930F000F00B8D2BF10BB4
:101720008D2B922B8312031387150800831203134A
:10173000230822042104200403199F2BA02BE32B50
:10174000A901A90AB02B0130A8000310A00DA10D1A
:10175000A20DA30DA80BA52B0130A8002808A907EE
:10176000A31FB32BB42BA32B23082702031DC22BCB
:1017700022082602031DC22B21082502031DC22BAD
:1017800020082402031CC52BC62BD42B2008A4023E
:101790002108031C210FA5022208031C220FA60208
:1017A0002308031C230FA70201300310A30CA20C73
:1017B000A10CA00CFF3E031DD52B0130A902031D77
:1017C000E22BE32BB42B2708A3002608A200250850
:1017D000A1002408A00008000030FC000030FB003D
:1017E0000030FA000030F9007308720471047004CC
:1017F0000319FB2BFC2B492CFD01FD0A0C2C01309D
:10180000F8000310F00DF10DF20DF30DF80B012CA3
:101810000130F8007808FD07F31F0F2C102CFF2B68
:101820000130F8000310F90DFA0DFB0DFC0DF80B5B
:10183000122C73087702031D272C72087602031DF1
:10184000272C71087502031D272C70087402031CD5
:101850002A2C2B2C3A2C7008F4027108031C710FEF
:10186000F5027208031C720FF6027308031C730F53
:10187000F702791401300310F30CF20CF10CF00CA8
:10188000FF3E031D3B2C0130FD02031D482C492C5B
:10189000102C7C08F3007B08F2007A08F10079082C
:1018A000F0000800031083120313300D310DB20055
:1018B0003208B8003808031D5E2C5F2C682C0030FD
:1018C000B1000030B0000030AF000030AE00CD2CD1
:1018D0002E08B2002F08B3003008B4003108B5005C
:1018E0001F300310B50CB40CB30CB20CFF3E031D3B
:1018F000712C3208B6003608B700B017FF30AE05BD
:10190000FF30AF05FF30B0050030B1059630B802AA
:10191000B81F8B2C8C2CA62C3808803A973E0318C5
:10192000922C932C942C5F2C01300310B10CB00C32
:10193000AF0CAE0CFF3E031D952C0130B2003208F7
:10194000B807031DA42CA52C942CBD2C20303802E4
:10195000031CAB2CAC2CB82C5F2C0130B200031054
:10196000AE0DAF0DB00DB10DB20BAF2C0130B80202
:101970003808031DBC2CBD2CAD2C37080319C12C15
:10198000C22CCD2CAE09AF09B009B109AE0A0319BA
:10199000AF0A0319B00A0319B10A08000030F300B6
:1019A0000030F2000330F100E830F000831203133E
:1019B0005408F7005308F6005208F5005108F400E7
:1019C0000A128A15EC230A128A157008831203136F
:1019D000AA002A08D5000030A3000030A200003081
:1019E000A1000A30A0000030F3000030F200003007
:1019F000F1006430F0005408F7005308F600520874
:101A0000F5005108F4000A128A15EC230A128A150F
:101A1000730883120313A7007208A6007108A500BB
:101A20007008A4000A128A1596230A128A158312D6
:101A300003132008AA002A08D6000030A3000030B3
:101A4000A2000030A1000A30A0000030F3000030F6
:101A5000F2000030F1000A30F0005408F70053089B
:101A6000F6005208F5005108F4000A128A15EC231A
:101A70000A128A15730883120313A7007208A600BE
:101A80007108A5007008A4000A128A1596230A128C
:101A90008A15831203132008AA002A08D7000030F1
:101AA000A3000030A2000030A1000A30A0005408BA
:101AB000A7005308A6005208A5005108A4000A1266
:101AC0008A1596230A128A15831203132008AA0086
:101AD0002A08D8000800831203135008803983169F
:101AE0000313AD002D08B6008312031350088316AC
:101AF0000313AD002D07AE002E08BD0083120313A3
:101B0000CF1F832D842D872D831603133D14831639
:101B100003133D0803198D2D8E2DA12D3D0A031DA4
:101B2000922D932D9D2D003083120313D000003091
:101B3000CF000030CE000030CD008312CF17D0018F
:101B4000AB2D003083120313D0000030CF000030E3
:101B5000CE000030CD004C08803983160313AD0051
:101B60002D08B606831203134C0883160313AD0029
:101B70002D07AE002E08BE0083120313CB1FC12D0C
:101B8000C22DC52D831603133E14831603133E087E
:101B90000319CB2DCC2DDF2D3E0A031DD02DD12DC9
:101BA000DB2D003083120313CC000030CB0000305B
:101BB000CA000030C9008312CB17CC01E92D0030D8
:101BC00083120313CC000030CB000030CA00003079
:101BD000C9004C084B044A044904031DF02DF12DA3
:101BE0000E2E0030D0000030CF000030CE0000308C
:101BF000CD008030CF047F30D00483160313360825
:101C0000AD002D0883120313D0045008CC004F08F8
:101C1000CB004E08CA004D08C900FF2F83160313DE
:101C20003D08031D142E152E202E003083120313A1
:101C3000CC000030CB000030CA000030C900FF2FBC
:101C40003D08AD00AE012E08B0003E082D02AF00E9
:101C5000031CB0032F087F3EB70030080318013E75
:101C6000003EB80083120313500883160313B50017
:101C7000831203134F0883160313B4008312031354
:101C80004E0883160313B300831203134D08831603
:101C90000313B200003083120313D0000030CF00D2
:101CA0000030CE000030CD00003083160313BC009E
:101CB0000030BB000030BA000030B900BE01DC2E9D
:101CC0003E080319642E652E8D2E0130AD000310E1
:101CD000B20DB30DB40DB50DAD0B672E0130AD00D7
:101CE000031083120313CD0DCE0DCF0DD00D83162F
:101CF0000313AD0B702EBC1F7E2E7F2E822E8312FF
:101D000003134D14013083160313AD000310B90DF6
:101D1000BA0DBB0DBC0DAD0B862E831203134C0800
:101D2000831603133502031DAB2E831203134B08D6
:101D3000831603133402031DAB2E831203134A08C8
:101D4000831603133302031DAB2E831203134908BA
:101D5000831603133202031CAE2EAF2ED82E3C176F
:101D600083120313490883160313B2028312031369
:101D70004A08031C4A0FBD2EC02E83160313B3025C
:101D8000831203134B08031C4B0FC72ECA2E831656
:101D90000313B402831203134C08031C4C0FD12EFF
:101DA000D42E83160313B502831203138316031371
:101DB0000130AD002D08BE071A303E02031CE12E93
:101DC000E22E602E35083404330432040319E92E60
:101DD000EA2E132F3914132F013083160313AD008D
:101DE000031083120313CD0DCE0DCF0DD00D83162E
:101DF0000313AD0BF02EBC1FFE2EFF2E022F8312FD
:101E000003134D14013083160313AD000310B90DF5
:101E1000BA0DBB0DBC0DAD0B062FFF30B707031875
:101E2000B80AFF30B80783120313CF1F182F192FDA
:101E3000EC2E83160313BE01BC1F1F2F202F402F33
:101E4000FF303905AD00FF303A05AE00FF303B05ED
:101E5000AF007F303C05B00030082F042E042D0465
:101E60000319332F342F392F83160313BE01BE0AF3
:101E7000402F831203134D1C3E2F3F2F402F342F32
:101E8000831603133E080319462F472F982F01305E
:101E900083120313CD07003003180130CE07003042
:101EA00003180130CF07003003180130D007501C51
:101EB0005A2F5B2F982F4D0883160313AD00831202
:101EC00003134E0883160313AE00831203134F0847
:101ED00083160313AF0083120313500883160313F2
:101EE000B0000130B100300DB00CAF0CAE0CAD0C39
:101EF000B10B732F300883120313D0008316031322
:101F00002F0883120313CF00831603132E088312A6
:101F10000313CE00831603132D0883120313CD0081
:101F2000013083160313B7070318B80A0030B80747
:101F3000831603133808803AFF0080307F02031DA8
:101F4000A32FFF303702031CA62FA72FB72FFF3078
:101F500083160313B7000030B80000308312031358
:101F6000D0000030CF000030CE000030CD0083160E
:101F700003133808803AFF0080307F02031DC22F10
:101F8000013037020318C52FC62FD72F831603132E
:101F9000B701B801003083120313D0000030CF0026
:101FA0000030CE000030CD0083160313B601831637
:101FB00003133708AD002D08BD003D1CE02FE12FB5
:101FC000E52F83120313CF17EB2F7F30AD002D08C1
:101FD00083120313CF05831603133D08AD000310CE
:101FE0002D0CAE002E0883120313D00083160313AA
:101FF0003608AD002D0883120313D004052E080007
:04400E00D220FF3F7E
:00000001FF
