:060000000A128A110E280D
:10000800FE00030EF1000408F2000A08F3000A12C9
:100018008A11A5280A128A11112883132A30FD0093
:100028000130FE00E930FF00203084000A128A11F6
:10003800BB210A128A11AA01AB01AC01AD01AE01C4
:10004800AF01B001B101F90183010A128A118829AF
:10005800E830F4000330F500831203133608F70084
:100068003508F6000A128A1106210A128A11750843
:1000780083120313AB007408AA00E830F4000330BD
:10008800F5003608F7003508F6000A128A114C21E7
:100098000A128A11750883120313B6007408B50092
:1000A8006430F4000030F5003608F7003508F60033
:1000B8000A128A1106210A128A117508831203137B
:1000C800AD007408AC006430F4000030F500360868
:1000D800F7003508F6000A128A114C210A128A1113
:1000E800750883120313B6007408B5000A30F400CB
:1000F8000030F5003608F7003508F6000A128A11B4
:1001080006210A128A11750883120313AF007408B6
:10011800AE000A30F4000030F5003608F700350864
:10012800F6000A128A114C210A128A1175088312E4
:100138000313B6007408B5003608B1003508B000DE
:100148000800831203130C1CAA28AB28FD28790881
:10015800031DAF28B028BB28880107148710071192
:1001680087112A08203E8400831300088800790339
:10017800031DBF28C028CB28880107108714071142
:1001880087112C08203E8400831300088800023061
:100198007906031DD028D128DC288801071087108C
:1001A800071587112E08203E840083130008880055
:1001B80003307906031DE128E228ED28880107109D
:1001C8008710071187153008203E84008313000824
:1001D80088000130F0007008F90704307906031D23
:1001E800F628F728F828F9010C10D8308F00EF30DE
:1001F8008E0073088A0072088400710E8300FE0E58
:100208007E0E090083120313B201B301740875044A
:1002180003190F2910294729B401B40A1E290130EE
:100228000310F40DF50DFF3E031D14290130F800ED
:100238007808B407F51F2129222913290130031052
:10024800B20DB30DFF3E031D232975087702031D68
:100258002F2974087602031C322933293A29740895
:10026800F6027508031CF703F70232140130031075
:10027800F50CF40CFF3E031D3B290130B402031DAD
:100288004629472922293308F5003208F4000800D6
:1002980074087504031951295229832983120313F9
:1002A800B201B20A622901300310F40DF50DFF3EC8
:1002B800031D58290130F8007808B207F51F652991
:1002C8006629572975087702031D6C297408760278
:1002D800031C6F29702976297408F6027508031C17
:1002E800F703F70201300310F50CF40CFF3E031D71
:1002F80077290130B202031D8229832966297708EC
:10030800F5007608F40008000A128A11DD210A12A5
:100318008A11831603130710871007118711831298
:10032800031307108710071187111F100B30831252
:100338000313B9002630B8005D30B700B70BA22907
:10034800B80BA229B90BA229573083120313B500A1
:100358000430B6000A128A112C200A128A119A292E
:100368000A128A110E287E088A007F0882000A1263
:100378008A11B7210A128A118000840A04087D06AE
:1003880003190034FF0A0319FE0ABB29D830831267
:1003980003138F00EF308E0090101012901210147B
:1003A800831603130C14831203130C100B178B17EB
:1003B80008000A128A11CA210A128A118316031325
:1003C800880183120313880108003F3406345B3424
:0E03D8004F3466346D347D3407347F346F3417
:00000001FF
